:100000000C942A000C942E040C9457040C94800435
:100010000C9447000C9447000C9447000C94470044
:100020000C9447000C9447000C9447000C94470034
:100030000C9447000C9447000C9447000C94470024
:100040000C9447000C9447000C9447000C94470014
:100050000C94470011241FBECFE5D8E0DEBFCDBF12
:1000600010E0A0E6B0E0EAE5FEE002C005900D92E7
:10007000AC37B107D9F720E0ACE7B0E001C01D9282
:10008000A638B207E1F70E94CC010C942B070C9420
:1000900000001F93CF93DF9300D01F92CDB7DEB740
:1000A00081112EC00E94CF0368E873E180E090E0E8
:1000B0000E94BA0410E007C080E00E94D30381E0F0
:1000C0000E94DA031F5F1530B8F381E00E94D3036A
:1000D00082E00E94CF0368E873E180E090E00E9434
:1000E000BA0410E00AC082E00E94D30388E00E94B4
:1000F000D30381E00E94DA031F5F1530A0F382C0B2
:10010000813009F07FC0BE016D5F7F4F82E00E94A9
:100110005202BE016F5F7F4F80E00E945202BE011B
:100120006E5F7F4F81E00E9452028B81813009F522
:1001300082E00E94CF0388E00E94CF0368E873E169
:1001400080E090E00E94BA0410E008C082E00E94C3
:10015000D30369E081E00E94EF031F5F1530B0F325
:1001600088E00E94D3038AE00E94CF0380E00E94CF
:10017000CF038A81813021F08981813009F042C02A
:100180008AE00E94CF0368EE73E080E090E00E9476
:10019000BA0410E00BC08AE00E94CF0380E00E9406
:1001A000D30369E081E00E94EF031F5F153098F3ED
:1001B00081E00E94D30389E00E94D3038AE00E9479
:1001C000D30382E00E94CF0388E00E94CF0368E857
:1001D00073E180E090E00E94BA0410E008C082E081
:1001E0000E94D30369E081E00E94EF031F5F153096
:1001F000B0F388E00E94D3038AE00E94CF0380E03E
:100200000E94CF030F900F900F90DF91CF911F911D
:100210000895CF93DF931F92CDB7DEB71982BE0149
:100220006F5F7F4F8AE10E94C9038981813019F491
:100230000E94490004C0811102C00E9449000F9031
:10024000DF91CF9108950E94CC030E94A9048FB73B
:1002500080688FBF0E941F0489E091E00E942904FA
:100260000895CF936FE770E08AE10E94C9036EE7BB
:1002700070E082E00E94D7036CE770E080E00E94AB
:10028000D7036DE770E081E00E94D70380917F0083
:10029000813031F590917E00913011F582E00E941D
:1002A000CF0388E00E94CF0368E873E180E090E02C
:1002B0000E94BA04C0E008C082E00E94D30369E053
:1002C00081E00E94EF03CF5FC530B0F388E00E9469
:1002D000D3038AE00E94CF0380E00E94CF035AC07C
:1002E000813009F053C090917D00913029F09091B8
:1002F0007C00913009F04AC068EE73E080E090E045
:100300000E94BA0480917F00811144C08AE00E945B
:10031000CF0368EE73E080E090E00E94BA04C0E092
:1003200008C08AE00E94CF0369E081E00E94EF03E9
:10033000CF5FC530B0F381E00E94D30389E00E9413
:10034000D3038AE00E94D30382E00E94CF0388E0B7
:100350000E94CF0368E873E180E090E00E94BA0455
:10036000C0E008C082E00E94D30369E081E00E94FF
:10037000EF03CF5FC530B0F388E00E94D3038AE07B
:100380000E94CF0380E00E94CF0304C0811102C00D
:100390000E944900CF9108950E9423010E943101DB
:1003A000FDCF982F969596959695877091111DC0C3
:1003B000613069F44BB321E030E0B90102C0660F4F
:1003C000771F8A95E2F7CB01842B8BBB08954BB343
:1003D00021E030E0B90102C0660F771F8A95E2F78D
:1003E000CB01809584238BBB08959130E9F4613073
:1003F00069F448B321E030E0B90102C0660F771F0D
:100400008A95E2F7CB01842B88BB089548B321E09D
:1004100030E0B90102C0660F771F8A95E2F7CB0181
:100420008095842388BB08959230E9F4613069F4A3
:1004300045B321E030E0B90102C0660F771F8A950D
:10044000E2F7CB01842B85BB089545B321E030E072
:10045000B90102C0660F771F8A95E2F7CB0180953C
:10046000842385BB08959330E1F4613069F442B38D
:1004700021E030E0B90102C0660F771F8A95E2F7EC
:10048000CB01842B82BB089542B321E030E0B90157
:1004900002C0660F771F8A95E2F7CB01809584230F
:1004A00082BB0895982F9695969596958770911191
:1004B0000DC029B330E0A90102C0559547958A9532
:1004C000E2F7CA018170FB0180830895913069F4DD
:1004D00026B330E0A90102C0559547958A95E2F709
:1004E000CA018170FB0180830895923069F423B3BF
:1004F00030E0A90102C0559547958A95E2F7CA01F7
:100500008170FB0180830895933061F420B330E063
:10051000A90102C0559547958A95E2F7CA018170F5
:10052000FB018083089580E090E02EC1FC01EE0F76
:10053000FF1FEE0FFF1FE05AFF4F2081211147C020
:10054000FC01EE0FFF1FEE0FFF1FE05AFF4F22814D
:10055000213099F44AB3FC01EE0FFF1FEE0FFF1F8D
:10056000E05AFF4F21E030E0018002C0220F331F2C
:100570000A94E2F7242B2ABB06C14AB3FC01EE0F12
:10058000FF1FEE0FFF1FE05AFF4F21E030E0018018
:1005900002C0220F331F0A94E2F7209524232ABBBE
:1005A0002381213009F0EFC04BB3FC01EE0FFF1F98
:1005B000EE0FFF1FE05AFF4F21E030E0018002C044
:1005C000220F331F0A94E2F7242B2BBBDCC021300F
:1005D00009F047C0FC01EE0FFF1FEE0FFF1FE05AAE
:1005E000FF4F2281213099F447B3FC01EE0FFF1F2A
:1005F000EE0FFF1FE05AFF4F21E030E0018002C004
:10060000220F331F0A94E2F7242B27BBBCC047B349
:10061000FC01EE0FFF1FEE0FFF1FE05AFF4F21E01E
:1006200030E0018002C0220F331F0A94E2F72095C8
:10063000242327BB2381213009F0A5C048B3FC0146
:10064000EE0FFF1FEE0FFF1FE05AFF4F21E030E0DB
:10065000018002C0220F331F0A94E2F7242B28BB2B
:1006600092C0223009F047C0FC01EE0FFF1FEE0FD1
:10067000FF1FE05AFF4F2281213099F444B3FC015F
:10068000EE0FFF1FEE0FFF1FE05AFF4F21E030E09B
:10069000018002C0220F331F0A94E2F7242B24BBEF
:1006A00072C044B3FC01EE0FFF1FEE0FFF1FE05AB4
:1006B000FF4F21E030E0018002C0220F331F0A9477
:1006C000E2F72095242324BB2381213009F05BC06D
:1006D00045B3FC01EE0FFF1FEE0FFF1FE05AFF4F67
:1006E00021E030E0018002C0220F331F0A94E2F7BC
:1006F000242B25BB48C0233009F045C0FC01EE0F78
:10070000FF1FEE0FFF1FE05AFF4F2281213099F4A7
:1007100041B3FC01EE0FFF1FEE0FFF1FE05AFF4F2A
:1007200021E030E0018002C0220F331F0A94E2F77B
:10073000242B21BB28C041B3FC01EE0FFF1FEE0F9D
:10074000FF1FE05AFF4F21E030E0018002C0220F7E
:10075000331F0A94E2F72095242321BB2381213003
:1007600091F442B3FC01EE0FFF1FEE0FFF1FE05AA2
:10077000FF4F21E030E0018002C0220F331F0A94B6
:10078000E2F7242B22BB0196873091050CF4CECEE4
:1007900008950E94520208950E949302089561E014
:1007A0000E94D101089560E00E94D10108950E9445
:1007B00052020895CF93C82F0E94CF0364EF71E0D7
:1007C00080E090E00E94BA048C2F0E94D30364EF73
:1007D00071E080E090E00E94BA04CF910895CF9339
:1007E000DF93D82FC62F0E94CF038C2F0E94CF03F8
:1007F00064EF71E080E090E00E94BA048D2F0E94C7
:10080000D3038C2F0E94D30364EF71E080E090E06B
:100810000E94BA04DF91CF910895813041F018F021
:10082000823049F008958BB780648BBF08958BB7F1
:1008300080688BBF08958BB780628BBF089580E07E
:100840000E940D0485B7816085BF85B7826085BF32
:100850000895909385008093840008951F920F92CD
:100860000FB60F9211242F933F934F935F936F9383
:100870007F938F939F93AF93BF93EF93FF93E091F9
:100880008400F0918500309709F00995FF91EF9170
:10089000BF91AF919F918F917F916F915F914F9198
:1008A0003F912F910F900FBE0F901F9018951F92A0
:1008B0000F920FB60F9211242F933F934F935F9394
:1008C0006F937F938F939F93AF93BF93EF93FF9318
:1008D000E0918000F0918100309709F00995FF9137
:1008E000EF91BF91AF919F918F917F916F915F91A8
:1008F0004F913F912F910F900FBE0F901F90189521
:100900001F920F920FB60F9211242F933F934F9384
:100910005F936F937F938F939F93AF93BF93EF9367
:10092000FF93E0918200F0918300309709F00995E0
:10093000FF91EF91BF91AF919F918F917F916F91B7
:100940005F914F913F912F910F900FBE0F901F908D
:10095000189512BE83B78F7B83BF83B7877F83BF12
:10096000089508B600FEFDCF88B7816088BF08955E
:1009700013BE08958F929F92AF92BF92CF92DF9253
:10098000EF92FF92CF93DF934B015C0121E430E0C3
:1009900040E050E00E940907CA01B9010E943A06EE
:1009A0000E9482050E940B066B017C01C501B40107
:1009B0000E943A062FE632E143E85EE30E94990581
:1009C0004B015C01C701B6010E943A069B01AC01D4
:1009D000C501B4010E9499059B01AC0160E070E083
:1009E00080E893E40E9415050E940B0662BF83B75E
:1009F000846083BFC0E0D0E003C00E94B1042196B0
:100A0000CE01A0E0B0E08C159D05AE05BF05A8F3B2
:100A10000E94B804DF91CF91FF90EF90DF90CF90CC
:100A2000BF90AF909F908F9008955058BB27AA27F2
:100A30000E942D050C94B7060E94A90638F00E946A
:100A4000B00620F039F49F3F19F426F40C94A60662
:100A50000EF4E095E7FB0C947706E92F0E94C80698
:100A600058F3BA17620773078407950720F079F4E3
:100A7000A6F50C9402070EF4E0950B2EBA2FA02DCC
:100A80000B01B90190010C01CA01A0011124FF273B
:100A9000591B99F0593F50F4503E68F11A16F04036
:100AA000A22F232F342F4427585FF3CF4695379535
:100AB0002795A795F0405395C9F77EF41F16BA0BFA
:100AC000620B730B840BBAF09150A1F0FF0FBB1FA8
:100AD000661F771F881FC2F70EC0BA0F621F731FF1
:100AE000841F48F4879577956795B795F7959E3F4E
:100AF00008F0B0CF9395880F08F09927EE0F9795DF
:100B0000879508950E94EA0690F09F3748F4911166
:100B100016F40C94030760E070E080E89FE308950A
:100B200026F01B16611D711D811D0C947D060C9411
:100B300098060E94AD050C94B7060E94B00658F0C6
:100B40000E94A90640F029F45F3F29F00C94770633
:100B500051110C9403070C94A6060E94C80668F372
:100B60009923B1F3552391F3951B550BBB27AA2766
:100B700062177307840738F09F5F5F4F220F331FA0
:100B8000441FAA1FA9F335D00E2E3AF0E0E832D068
:100B900091505040E695001CCAF72BD0FE2F29D06B
:100BA000660F771F881FBB1F261737074807AB073D
:100BB000B0E809F0BB0B802DBF01FF2793585F4FB2
:100BC0003AF09E3F510578F00C9477060C94030799
:100BD0005F3FE4F3983ED4F3869577956795B79594
:100BE000F7959F5FC9F7880F911D9695879597F99F
:100BF0000895E1E0660F771F881FBB1F6217730718
:100C00008407BA0720F0621B730B840BBA0BEE1F2C
:100C100088F7E09508950E94D00688F09F5798F0D5
:100C2000B92F9927B751B0F0E1F0660F771F881FF1
:100C3000991F1AF0BA95C9F714C0B13091F00E940B
:100C40000207B1E008950C940207672F782F8827D8
:100C5000B85F39F0B93FCCF3869577956795B39532
:100C6000D9F73EF490958095709561957F4F8F4FA1
:100C70009F4F0895E89409C097FB3EF490958095A6
:100C8000709561957F4F8F4F9F4F9923A9F0F92F52
:100C900096E9BB279395F695879577956795B795D0
:100CA000F111F8CFFAF4BB0F11F460FF1BC06F5FB6
:100CB0007F4F8F4F9F4F16C0882311F096E911C0C8
:100CC000772321F09EE8872F762F05C0662371F0E9
:100CD00096E8862F70E060E02AF09A95660F771FFD
:100CE000881FDAF7880F9695879597F9089597F9F1
:100CF0009F6780E870E060E00895882371F47723AF
:100D000021F09850872B762F07C0662311F499277E
:100D10000DC09051862B70E060E02AF09A95660F26
:100D2000771F881FDAF7880F9695879597F90895AA
:100D30009F3F31F0915020F4879577956795B7954F
:100D4000880F911D9695879597F908959FEF80ECF0
:100D5000089500240A941616170618060906089521
:100D600000240A9412161306140605060895092E87
:100D70000394000C11F4882352F0BB0F40F4BF2BF6
:100D800011F460FF04C06F5F7F4F8F4F9F4F089536
:100D900057FD9058440F551F59F05F3F71F047952C
:100DA000880F97FB991F61F09F3F79F08795089511
:100DB000121613061406551FF2CF4695F1DF08C030
:100DC000161617061806991FF1CF8695710561054D
:100DD000089408950E94D006A0F0BEE7B91788F4E1
:100DE000BB279F3860F41616B11D672F782F882710
:100DF000985FF7CF869577956795B11D939596394E
:100E0000C8F30895E894BB2766277727CB0197F9A5
:100E10000895A1E21A2EAA1BBB1BFD010DC0AA1F3B
:100E2000BB1FEE1FFF1FA217B307E407F50720F053
:100E3000A21BB30BE40BF50B661F771F881F991FCE
:100E40001A9469F760957095809590959B01AC0117
:0A0E5000BD01CF010895F894FFCF13
:100E5A000000010000010100000201000100010080
:0C0E6A0001010100010201000302000070
:00000001FF
